{
  "transactions": [
    {
      "hash": "0x6dde85d52a9a0f3844d02bb8bb0edc081c4c1351a1a2405d6cf61143a4cd2643",
      "transactionType": "CREATE",
      "contractName": "SimpleOracle",
      "contractAddress": "0xef2ed9f23e7dc480c7be7c59fa5d50c7c901e178",
      "function": null,
      "arguments": [
        "0xaEA0FC6B4738704ef6cfAf24D83199cb8FFf61C0"
      ],
      "transaction": {
        "from": "0xaea0fc6b4738704ef6cfaf24d83199cb8fff61c0",
        "gas": "0x76881",
        "value": "0x0",
        "input": "0x6080604052348015600e575f5ffd5b50604051610635380380610635833981016040819052602b9160b4565b806001600160a01b038116605857604051631e4fbdf760e01b81525f600482015260240160405180910390fd5b605f816065565b505060df565b5f80546001600160a01b038381166001600160a01b0319831681178455604051919092169283917f8be0079c531659141344cd1fd0a4f28419497f9722a3daafe3b4186f6b6457e09190a35050565b5f6020828403121560c3575f5ffd5b81516001600160a01b038116811460d8575f5ffd5b9392505050565b610549806100ec5f395ff3fe608060405260043610610079575f3560e01c80638da5cb5b1161004c5780638da5cb5b14610110578063a938b43314610136578063b2255ba314610155578063f2fde38b14610184575f5ffd5b806319af7a401461007d57806341bd64ba146100c957806365ca5ae6146100dd578063715018a6146100fc575b5f5ffd5b348015610088575f5ffd5b5061009c61009736600461039f565b6101a3565b60408051825167ffffffffffffffff16815260209283015160170b92810192909252015b60405180910390f35b6100db6100d73660046103b6565b5050565b005b3480156100e8575f5ffd5b506100db6100f736600461043d565b610214565b348015610107575f5ffd5b506100db61027b565b34801561011b575f5ffd5b505f546040516001600160a01b0390911681526020016100c0565b348015610141575f5ffd5b506100db610150366004610467565b61028e565b348015610160575f5ffd5b5061017661016f3660046103b6565b5f92915050565b6040519081526020016100c0565b34801561018f575f5ffd5b506100db61019e3660046104b0565b6102e2565b604080518082019091525f80825260208201525f82815260016020908152604080832081518083019092525467ffffffffffffffff8116808352600160401b90910460170b92820192909252910361020e576040516313a8ad7d60e11b815260040160405180910390fd5b92915050565b61021c610324565b604051806040016040528042633b9aca0061023791906104dd565b67ffffffffffffffff908116825260179390930b6020918201525f938452600181526040909320815191909301516001600160c01b0316600160401b029116179055565b610283610324565b61028c5f610350565b565b610296610324565b60408051808201825267ffffffffffffffff928316815260179390930b60208085019182525f958652600190529320915192516001600160c01b0316600160401b029216919091179055565b6102ea610324565b6001600160a01b03811661031857604051631e4fbdf760e01b81525f60048201526024015b60405180910390fd5b61032181610350565b50565b5f546001600160a01b0316331461028c5760405163118cdaa760e01b815233600482015260240161030f565b5f80546001600160a01b038381166001600160a01b0319831681178455604051919092169283917f8be0079c531659141344cd1fd0a4f28419497f9722a3daafe3b4186f6b6457e09190a35050565b5f602082840312156103af575f5ffd5b5035919050565b5f5f602083850312156103c7575f5ffd5b823567ffffffffffffffff8111156103dd575f5ffd5b8301601f810185136103ed575f5ffd5b803567ffffffffffffffff811115610403575f5ffd5b8560208260081b8401011115610417575f5ffd5b6020919091019590945092505050565b8035601781900b8114610438575f5ffd5b919050565b5f5f6040838503121561044e575f5ffd5b8235915061045e60208401610427565b90509250929050565b5f5f5f60608486031215610479575f5ffd5b8335925061048960208501610427565b9150604084013567ffffffffffffffff811681146104a5575f5ffd5b809150509250925092565b5f602082840312156104c0575f5ffd5b81356001600160a01b03811681146104d6575f5ffd5b9392505050565b67ffffffffffffffff818116838216029081169081811461050c57634e487b7160e01b5f52601160045260245ffd5b509291505056fea2646970667358221220f3f1a8d4ddf05129d3d43dbde1d913aedb7a2571192fc852af999ba0fb6fd26364736f6c634300081e0033000000000000000000000000aea0fc6b4738704ef6cfaf24d83199cb8fff61c0",
        "nonce": "0x19",
        "chainId": "0x4cef52"
      },
      "additionalContracts": [],
      "isFixedGasLimit": false
    },
    {
      "hash": "0xce1aaf72cc0759197435e8d013d5b0cb63b6b1d1442ff21613714fe8fbd108d5",
      "transactionType": "CALL",
      "contractName": "SimpleOracle",
      "contractAddress": "0xef2ed9f23e7dc480c7be7c59fa5d50c7c901e178",
      "function": "setPriceNow(bytes32,int192)",
      "arguments": [
        "0x59102b37de83bdda9f38ac8254e596f0d9ac61d2035c07936675e87342817160",
        "2500000000000000000000"
      ],
      "transaction": {
        "from": "0xaea0fc6b4738704ef6cfaf24d83199cb8fff61c0",
        "to": "0xef2ed9f23e7dc480c7be7c59fa5d50c7c901e178",
        "gas": "0xfc30",
        "value": "0x0",
        "input": "0x65ca5ae659102b37de83bdda9f38ac8254e596f0d9ac61d2035c07936675e873428171600000000000000000000000000000000000000000000000878678326eac900000",
        "nonce": "0x1a",
        "chainId": "0x4cef52"
      },
      "additionalContracts": [],
      "isFixedGasLimit": false
    }
  ],
  "receipts": [
    {
      "status": "0x1",
      "cumulativeGasUsed": "0x13839e",
      "logs": [
        {
          "address": "0xef2ed9f23e7dc480c7be7c59fa5d50c7c901e178",
          "topics": [
            "0x8be0079c531659141344cd1fd0a4f28419497f9722a3daafe3b4186f6b6457e0",
            "0x0000000000000000000000000000000000000000000000000000000000000000",
            "0x000000000000000000000000aea0fc6b4738704ef6cfaf24d83199cb8fff61c0"
          ],
          "data": "0x",
          "blockHash": "0x75d5806e8b3e6bf500ee8258d9b6b4f9add44c1b97d2bdf222a4d6e7ddbb48d0",
          "blockNumber": "0x1bfc3fb",
          "blockTimestamp": "0x69a2714b",
          "transactionHash": "0x6dde85d52a9a0f3844d02bb8bb0edc081c4c1351a1a2405d6cf61143a4cd2643",
          "transactionIndex": "0xb",
          "logIndex": "0x17",
          "removed": false
        }
      ],
      "logsBloom": "0x00000000000000008000000000000000000000000000000000800000000000000000000000000000000000000000000000000000001000000000000000000000000000000000000000000000000000000001000000000000000000000000000000000000020000000200000000010800000000000000000000000000000000400000000000000000000000000020000000000000000000000000000000000000000000000000000000000000000000000000000000000000000000000000000000000000000000000000000000000000000000000000000000000000002020000000000000000000000000000000000000000000000000000000000000000000",
      "type": "0x2",
      "transactionHash": "0x6dde85d52a9a0f3844d02bb8bb0edc081c4c1351a1a2405d6cf61143a4cd2643",
      "transactionIndex": "0xb",
      "blockHash": "0x75d5806e8b3e6bf500ee8258d9b6b4f9add44c1b97d2bdf222a4d6e7ddbb48d0",
      "blockNumber": "0x1bfc3fb",
      "gasUsed": "0x5b2da",
      "effectiveGasPrice": "0x4a828ade8",
      "from": "0xaea0fc6b4738704ef6cfaf24d83199cb8fff61c0",
      "to": null,
      "contractAddress": "0xef2ed9f23e7dc480c7be7c59fa5d50c7c901e178"
    },
    {
      "status": "0x1",
      "cumulativeGasUsed": "0x143a33",
      "logs": [],
      "logsBloom": "0x00000000000000000000000000000000000000000000000000000000000000000000000000000000000000000000000000000000000000000000000000000000000000000000000000000000000000000000000000000000000000000000000000000000000000000000000000000000000000000000000000000000000000000000000000000000000000000000000000000000000000000000000000000000000000000000000000000000000000000000000000000000000000000000000000000000000000000000000000000000000000000000000000000000000000000000000000000000000000000000000000000000000000000000000000000000",
      "type": "0x2",
      "transactionHash": "0xce1aaf72cc0759197435e8d013d5b0cb63b6b1d1442ff21613714fe8fbd108d5",
      "transactionIndex": "0xc",
      "blockHash": "0x75d5806e8b3e6bf500ee8258d9b6b4f9add44c1b97d2bdf222a4d6e7ddbb48d0",
      "blockNumber": "0x1bfc3fb",
      "gasUsed": "0xb695",
      "effectiveGasPrice": "0x4a828ade8",
      "from": "0xaea0fc6b4738704ef6cfaf24d83199cb8fff61c0",
      "to": "0xef2ed9f23e7dc480c7be7c59fa5d50c7c901e178",
      "contractAddress": null
    }
  ],
  "libraries": [],
  "pending": [],
  "returns": {},
  "timestamp": 1772253516683,
  "chain": 5042002,
  "commit": "6b1c4cc"
}